:1000000010C017C017C015C014C013C012C011C053
:1000100010C00FC00EC00DC00CC00BC00AC009C07C
:1000200008C011241FBECFE5D2E0DEBFCDBF21D076
:100030002CC0E6CF1F921FB61F9211248F939F935F
:1000400099B389B38695817090FD0EC0811104C06B
:100050008BB3837F8BBB02C0DB98DA9A9F918F9121
:100060001F901FBE1F9018958111F2CFDA98DB9A6E
:10007000F5CF80E886BD16BC83E08BBB9CE09ABBC5
:0E00800082BB80E18BBF7894FFCFF894FFCF56
:00000001FF
