:020000021000EC
:10B000000080002039B1010079B101007BB101005D
:10B010000000000000000000000000000000000030
:10B020000000000000000000000000007DB10100F1
:10B0300000000000000000007FB1010081B10100AC
:10B040008DC7010087B1010089B1010081C80100ED
:10B050008DB1010000000000EDC40100B9C601007F
:10B0600093B1010095B1010097B1010099B10100C0
:10B070009BB101009DB101009FB10100A1B1010090
:10B08000A3B1010079BD0100A7B1010000000000DB
:10B0900035BE0100ABB1010005B50100AFB1010043
:10B0A000B1B10100B3B101000000000000000000D8
:10B0B0000000000000000000000000000000000090
:10B0C000164B002B00D1144B9D46402292029A1A37
:10B0D000924600218B460F461348144A121A01F07B
:10B0E000A9FF0F4B002B00D098470E4B002B00D030
:10B0F00098470020002104000D000D48002802D0D0
:10B100000C4802F09BF801F02FFF2000290000F00E
:10B1100003F901F019FFC04600000800008000207C
:10B120000000000000000000902C0020592F00209B
:10B130003DD201004DD201000948026803210A43B3
:10B1400002600849084A094B9B1A05DD002408598A
:10B15000105104349C42FADB0548804705480047FB
:10B1600024050040C4D30100002800208C2C0020BE
:10B17000B5B10100C1B00100FEE7FEE7FEE7FEE762
:10B18000FEE7FEE7FEE7FEE7FEE7FEE7FEE7FEE797
:10B19000FEE7FEE7FEE7FEE7FEE7FEE7FEE7FEE787
:10B1A000FEE7FEE7FEE7FEE7FEE7FEE7FEE7FEE777
:10B1B000FEE7FEE72D4B10B51A78012A0FD12C4A75
:10B1C000126812070BD12B4AE0241168F022080004
:10B1D0001040214227D128490968114226D01A7807
:10B1E000012A0DD122490968090709D1F020214916
:10B1F00009680140402903D11F49096801422ED046
:10B200001B68DBB2012B0DD1194B1B681B0709D141
:10B21000184B1A68F0231A40A02A0FD1164A126858
:10B220001A420ED010BD3028D5D0D8E71349144AA1
:10B2300011608021134A09021160D0E7D02AF1D1B0
:10B24000ECE7114B1A68012A03D1C0220F4B1A6098
:10B25000E8E70F4A1A601A68012AFCD1F5E7C12114
:10B260008020C900C0054250CAE7C046E00F00F088
:10B27000E40F00F0E80F00F0EC0F00F0DFFF07C074
:10B2800004050040186C004000EC064014EC064039
:10B2900075930000A0228021064BD2058902D1506F
:10B2A00080214900D15080218905D1508021C903D6
:10B2B000D15070470C050000A0238022DB0552000E
:10B2C000002803D0A121C9005A5070470049FBE76C
:10B2D0000C05000010B5044B1B78012B02D14078FF
:10B2E000FFF7EAFF10BDC046EE2E002010B50400A7
:10B2F000064901F08EFD0649200001F08AFD002874
:10B3000002D00448FFF7E6FF10BDC04650280020D9
:10B3100026280020EE2E0020E423A0220C49DB008A
:10B32000D20510B5D150FFF7B5FF01F0AFFD01F028
:10B33000D3F8002801D101F0A1F880220321054BA8
:10B34000D205D15001F0AAFD01F0C2FCFCE7C046D5
:10B350000F0200002405000052DF704710DF704725
:10B3600060DF704761DF704710B501F0E3FA10BD90
:10B37000C5230A499B00CB585B0206D4084803E06A
:10B38000002011680B43136070478023054ADB03DC
:10B3900050680028F4D10B60F6E7C04600E100E0F9
:10B3A00002200000142F0020F0B5284B85B01F7834
:10B3B000FFB2002F44D0264E346863425C41002324
:10B3C000E4B2002B21D1234B1B78002B38D103A8EA
:10B3D000FFF7C2FF052835D0002808D000F0B2FFE3
:10B3E000002C15D03D00002423002C00E9E7039831
:10B3F00001F0F6F9184B1B68002BF1D00398984721
:10B40000EEE7019833689847EEE7002C18D11C004E
:10B41000104B1D78EDB2002D12D1104B03A91B88E3
:10B420000B800F4B1B6818000193FFF79BFF05284B
:10B4300004D00028E5D000F085FFD5E7002CD1D05E
:10B4400005B0F0BD002CFBD13C00E1E79C2C0020B6
:10B45000942C00209D2C0020A02C0020902C00205B
:10B46000A42C0020014B1878C0B270479C2C0020FF
:10B4700070B506000720002918D08C0716D1104897
:10B48000104C0160104925680A80104A136001239E
:10B490001D4001D00E4AD3670E493000FFF75EFF12
:10B4A000002804D0002D01D00123236070BD0122AB
:10B4B000094B1A7001F09AF9FFF75AFFF6E7C046F8
:10B4C000A42C002000E100E0902C0020982C00200B
:10B4D00004E100E069B301009C2C00200E23002849
:10B4E00002D0024B1860002318007047942C0020F3
:10B4F0000E23002802D0024B18600023180070476A
:10B50000A02C0020064B10B51B68002B05D09847D7
:10B51000002801D000F016FF10BDFFF745FFFBE744
:10B52000982C002070B5140005000E001422002194
:10B53000200001F07FFD0123002223802273267268
:10B540006572954200D0A372002070BD07B5044B10
:10B5500069460193019B0093FFF702FF019B0EBD1B
:10B560000028002071DF704772DF704779DF704775
:10B570007DDF704765DF7047F0B5002506002F00BE
:10B5800089B001930EAB10CB04911B8803920593F5
:10B590002388029333889F420FDB0020854248D0E6
:10B5A0002388029A013B9B1A9BB20C30FF2B40D898
:10B5B000019A0299002053543BE07368B90059186E
:10B5C000042207A801F0F4FC06AB0022D91C07A84E
:10B5D000FFF7D0FF00282CD106ABDB78039A93420B
:10B5E00024D169426941238849009A185218059963
:10B5F0008A421DDC002D09D169460133019A097C7C
:10B600009BB22380D154238801332380019B22885D
:10B6100007A89A1806ABDD1C2900FFF7ABFF00282E
:10B6200007D12B78012522889B1823800137B1E7A9
:10B630000C2009B0F0BDF0B51D0085B00AAB40CBC1
:10B6400003921F880222019700962B000400FFF747
:10B6500093FF002807D1019700962B001022039931
:10B660002000FFF789FF05B0F0BD0000F0B513889A
:10B6700087B002930023138003002D331B7807004B
:10B680000D001400002B2AD0029B0C20082B00D8A0
:10B690001EE104AE3000FFF765FF002800D017E17F
:10B6A000082209212388EA542388133201339BB2EC
:10B6B0002380EA54208802AB013080B22080153A02
:10B6C000C918281801F074FC2388327806339BB21D
:10B6D0002380002A33D1EA54238801332380BB78A6
:10B6E000002B22D02388029A04330C20934200D9E5
:10B6F000EEE004AE3000FFF739FF002800D0E7E0AD
:10B7000003222388EA542388163201339BB2238014
:10B71000EA542388328801339BB22380EB181A70D5
:10B72000120A5A70238802332380FA78002A18D02C
:10B7300023880298D91C814203D90C20C8E0012239
:10B74000C9E70221E9542388013901339BB22380E0
:10B75000E95423885B189BB22380EA5423885B1842
:10B7600023807A68002A16D023880298D91C814247
:10B77000E3D802211278E9542388083101339BB2BF
:10B780002380E954238852B201339BB22380EA54C8
:10B790002388013323803B89002B00D08BE03B8A38
:10B7A000002B0CD03800029B0094019307222B0041
:10B7B00003211030FFF73FFF002800D088E03B8BCB
:10B7C000002B0CD03800029B0094019315222B0013
:10B7D00014211830FFF72FFF002800D078E03B6AD3
:10B7E000002B00D076E07E6A002E2CD0B388218812
:10B7F000981C8A1C12189446029A94459DD8FE28DB
:10B800009BD8FF2203336B54238801339BB22380E0
:10B81000EA54238801339BB223803288EB181A70D4
:10B82000120A5A702088023080B22080B288002A22
:10B8300009D0B168002956D0281801F0B9FB238837
:10B84000B2889B1823803B002C331B78002B00D040
:10B850007FE03B78181E3BD03A880720012A37D07A
:10B8600022880299901C884200D966E7012B06D1F4
:10B870007B78029902339B18994200D25DE7029EC1
:10B880002818023EB61AB3B202936B4604AE1B8967
:10B8900031003380FFF76CFE002819D13B78022B72
:10B8A00000D093E03388029909228B4200D897E0B8
:10B8B0006B461B8992E03800029B0094019306229C
:10B8C0002B0002210830FFF7B6FE002800D166E702
:10B8D00007B0F0BD26880299B21D8A4200D92CE734
:10B8E0001988052901D80720F2E7454A45488A18F2
:10B8F00092B284468242F6D95A88052AF3D9404842
:10B90000101880B26045EED93F48814203D0824290
:10B9100001D09142E7D805221221AA55228801328E
:10B9200092B22280A9542288013292B222801988D0
:10B93000AA181170090A51702288023292B222802C
:10B940005988AA181170090A51702388023323807C
:10B9500049E7BB6A002BC6D0002303933B002C337E
:10B960001B78039A934200D873E70C26039B5E432F
:10B97000BB6A9E19B3889A1CFE2A00D9DDE622888C
:10B980000333AB541622238801339BB22380EA543D
:10B99000238801339BB223803288EB181A70120A75
:10B9A0005A702088023080B22080B288002A09D0E4
:10B9B000B168002997D0281801F0FAFA2388B288D4
:10B9C0009B182380039B0133DBB2C6E7012B00D019
:10B9D0006EE77B78029A9A4200D269E708223380A8
:10B9E0003188FE2900D9A8E623880131E95423884B
:10B9F00001339BB22380EA5423885918218067E7DA
:10BA00007FF3FFFF7DF30000FFFF0000F0B593B070
:10BA10006A461F2301AE971D0D0033803B8000282E
:10BA200005D0C3785B071AD4072013B0F0BD04001B
:10BA30003080002D0BD0EB78002BF5D13A000AA90D
:10BA40002800FFF713FE0AAA002802D0EDE72A001B
:10BA50003D803B7831782000FFF786FDE5E7320036
:10BA600002A9FFF703FE02AC0028E2D0DDE775DF94
:10BA7000704776DF70477ADF70477BDF70470000E2
:10BA8000164B13B51888164B984211D0154A164C10
:10BA900013780133DBB21370217B994209D3134928
:10BAA000FFF7E5FF002803D0A369002B00D09847DB
:10BAB00013BD00231370237C002B08D03B21FFF71C
:10BAC000D8FF002803D0A369002B00D098476369F2
:10BAD000002BEDD0002201A80270E8E7AA2C00207C
:10BAE000FFFF0000F82C0020AC2C0020F02C0020E0
:10BAF00037B5174B174A5B881188174C174D994279
:10BB000011D852889A420ED36369002B1DD001A828
:10BB1000012204E06369002B17D0002201A8027003
:10BB200012E0A16807E02B78002BF3D10C4B1B78B7
:10BB3000002BF6D1616800220A4800F0A1FB002822
:10BB400003D0A369002B00D0984700232B7037BD8A
:10BB5000E82C0020F02C0020AC2C0020A82C002089
:10BB6000F82C0020C82C0020144902000B0070B5EE
:10BB700032CA32C332CA32C31268114C1A60002270
:10BB8000104B01681A70914214D00832200001F065
:10BB90000FFA2000FFF76FFF00280AD101220021D1
:10BBA000094B52421A80094B094A0A48197000F0A1
:10BBB0004FFB70BD2000FFF760FFEDE7AC2C0020CD
:10BBC000F02C0020A82C0020AA2C0020F82C00200B
:10BBD00081BA010098D30100038810B5112B2ED033
:10BBE00002D8102B18D010BD122B3AD0502BFAD1FE
:10BBF0001F4CC188E2899142F5D1038A022BF2D110
:10BC0000123000F00DFE002816D11A4800F084FB17
:10BC10000028E8D0A36920E001008288164B183183
:10BC20001A801648082201F0C3F90022144B1A703A
:10BC30000F4BDB899342D6D1FFF75AFFD3E701229E
:10BC40000D4B52421A8000220D4B0A481A7000F028
:10BC500063FB0028C7D0064B9B69002BC3D09847D5
:10BC6000C1E7010008220831044801F0A1F9E3E727
:10BC7000AC2C0020C82C0020AA2C0020E82C00208E
:10BC8000F82C002030B509494C788A78631CDBB267
:10BC90009A4200D100230D7800229D4204D0037007
:10BCA000182060434A681218100030BD002D002093
:10BCB000F0B5002785B002ABDD1D00902800019192
:10BCC0002F7000F04DFB02AB9E1D3000FFF7DAFF36
:10BCD0000424B84208D06B463C001B790370009BDB
:10BCE00032784360064B5A70287800F057FB002CDE
:10BCF00003D18022034B52035A60200005B0F0BDEF
:10BD0000002D0020FCE100E0084B09491A682F23B0
:10BD1000C046C046C046C046C046C046C046C046F3
:10BD20008A4200D0C046013BF2D170470028002073
:10BD30000024F40080220C4B920270B5DA67802355
:10BD4000D2220125094C5B029200A350403AA35035
:10BD50006560FFF7D9FFA5600024054B1C60FFF765
:10BD6000D3FF044B1C7070BD04E100E000100140E3
:10BD7000182D0020092D002070B50024234B5C6491
:10BD80009C64DC641C655C609C60214B1B68A34266
:10BD900032D0204A20498D58204A1268AD1A2D020F
:10BDA0002D0A1A68AA4214D8AD1AA4181A7CDE69A2
:10BDB000002A0CD000221A74194A1268002A1ED0D8
:10BDC000996958699047002801D000F0BBFA002E0D
:10BDD00013D1144B144A197813788B4204D10133D0
:10BDE000DBB2022B0FD013701378104A9B009C50CB
:10BDF00080220F4B52035A6070BD3300D1E75A695D
:10BE000098699047E3E70023EDE7C046FC10014046
:10BE10001C2D00200405000000100140182D0020FA
:10BE2000FC2C0020142D0020152D00200C2D0020AE
:10BE3000FCE100E0F0B5C349C34A0B68C3488BB0CE
:10BE400002931478037800229C4200D1B7E00133BA
:10BE5000DBB2022B00D1B0E003700378BC4A9B0038
:10BE60009A58029B9B181B021B0A0B60012301932B
:10BE7000B84B002019780091B749096803915978A7
:10BE800009915968049100999B788C46012105938A
:10BE9000AC4B07901B6806900893B04B1F78039B30
:10BEA000099CA44500D08CE00699002901D0AB493B
:10BEB0000F700799002902D0A249089C0C60A6497E
:10BEC000002800D00B60019B002B00D0A1E0039A5A
:10BED0000B6800249B1A5A1E9341DBB20193002683
:10BEE00035009D4B1B6803939C4B039A1B7806936C
:10BEF000944B1B680293002C00D0B3E0009B9C4540
:10BF000000D0D0E0002D02D06146924B1970924BC8
:10BF1000002E00D01A601B68039A9A4202D1019A3F
:10BF2000002A45D0002B00D108E11B688C4A8D4CBB
:10BF30000393A558029B8C4EEB1A1B021B0A03337A
:10BF4000009333780192002B12D18023C13A5B0217
:10BF5000FF3AA350403AA350C02180220127834BCF
:10BF6000920249005A501A602760FFF7CDFE3770E1
:10BF7000039B009A934200D21300A821029AC900A1
:10BF80009B181B021B0A019A6350A258521B1202F3
:10BF9000120A5D1B2D0203322D0AAA4208D9019B09
:10BFA000E3586350FFF7B0FE8022714B92025A6053
:10BFB00000226A4B1A700BB0F0BD02704DE701927F
:10BFC00056E7654618246C43049D2C1965460135D7
:10BFD000EDB2AC46059DAC4501D10025AC462578B7
:10BFE000022D0AD0032D00D05AE7002B00D157E7CD
:10BFF00000201874DB690800F7E765681E001C0064
:10C00000002C00D14CE7A54200D1B5E02600E46940
:10C01000F6E70B6800210C0008000E00002B05D18C
:10C02000002900D15BE74C4A136058E71D68954230
:10C0300006D9002901D048490B60AA1A1A604EE7B8
:10C04000521B4019DD681E60DF69002D07D0DC61DE
:10C050001C0002999D6009180902090A59603B00F9
:10C060000199DBE72300E469596802980791081AEF
:10C0700040490002000A9F6888423DD8381818607D
:10C08000002159609960013119740021D9618A42F7
:10C0900006D018681168884244D8081A1060DA611E
:10C0A0001A00012627E71821009B5943049B5918C1
:10C0B000009B0133DBB200930098059B834201D1C2
:10C0C0000023009301250B78AB4200D016E74B68A4
:10C0D0001D7C002D00D011E788685860C868986002
:10C0E0000869D860496999610699002902D05D60A4
:10C0F0000D00B9E70125B7E702990798091A090267
:10C10000090AB94202D27F1A1F60B9E700211960FB
:10C11000B6E7C01BCF690791002F0DD11860DF6112
:10C12000CB61E8E6110007920F688742F1D33F1A0E
:10C130000F600F000799F1E73900F5E7FFF7FAFD07
:10C1400036E7C046182D0020152D0020142D0020A4
:10C150000C2D0020002D00201C2D0020082D00207B
:10C160000405000000100140092D002000E100E05E
:10C17000FCE100E0FEFF7F00B5420AD1DB69080068
:10C18000002B06D108480F00816008000791089332
:10C1900006912C68ED69F561002D00D180E62E68CE
:10C1A00034192C607CE6C04600100140F7B503242A
:10C1B00001900E0015001F0014400720002C32D102
:10C1C000002A30D0FFF7B6FD174B80201F60174BB9
:10C1D000C0225D60C525FF211C705C709E70144BF1
:10C1E00040031C60134B52001C70134BAD001C70BD
:10C1F000124B98505A598A431100C0220A435A518F
:10C20000A122186001990E48D2008150043D5A596C
:10C210000C491140C02212020A435A510A4BC2581B
:10C2200020000A4B1A60FEBDFC2C0020002D0020CF
:10C230001C2D0020142D0020152D002000E100E011
:10C2400000100140FF00FFFF04050000182D002032
:10C250000A4B10B55C680823002C0CD0013B002A67
:10C2600009D0002807D000680133047C002C02D1DB
:10C27000230041744261180010BDC046002D00200B
:10C28000F0B5214F87B07B68050001910392082427
:10C29000002B35D0002833D0013C042930D9436924
:10C2A0000134002B2CD0427C00230291012A00D0C3
:10C2B000029304AAD61D3000337000F051F804AB8D
:10C2C000981DFFF7DFFC0424002810D00123002470
:10C2D00003700E4A0E4B4560D3588360019BC360C8
:10C2E000029B0361039B436104AB9B797B703078B5
:10C2F00000F054F8002C03D18022064B52035A6000
:10C30000200007B0F0BDC046002D00200010014005
:10C3100004050000FCE100E0094B10B55A68082351
:10C32000002A0AD0002808D04269002A05D000233C
:10C3300002210374FFF7BCFC0300180010BDC046C7
:10C34000002D00201FB5002101AA90600348118034
:10C35000516000F0EFFA05B000BDC046014000009A
:10C3600070B5EFF3108672B6094B012259680029A7
:10C370000BD1084C5A60E26F074D2A401A60E567FE
:10C380000170002E00D162B670BD0270F9E7C046A0
:10C39000142F002004E100E0FC06FFBC084A10B5A1
:10C3A0005368002B0BD0002809D1EFF3108372B62D
:10C3B000044914680C605060002B00D162B610BDB7
:10C3C000142F002000E100E0F0B5890100281DDAFB
:10C3D0000F23C2B21340083B164C9B089B001B194D
:10C3E00003242240A240FC34260021409640914084
:10C3F000DD69B5432943D9611F23C02118401E3B85
:10C4000083400D4A490053501360F0BDFF260A4A8D
:10C4100083089B009B1803223700C0250240D200EE
:10C42000974031409140AD005C59BC432143595184
:10C43000E2E7C04600ED00E000E100E0A02380005C
:10C44000DB05C018E023DB0010B5C258034C09041B
:10C450002240C250C2581143C15010BDFFFFFCFF23
:10C460000122054B81005242CA50032802D91B18F1
:10C4700034331A707047C046202D002070B5134D1C
:10C4800008202B003A331B78002B1DD1FF21EA181E
:10C4900001331176202BFAD1002420000134E4B2BC
:10C4A000FFF7DEFF062CF8D103212000FFF78CFFF9
:10C4B0000020074B80211860C123064A9B00090613
:10C4C000D15001233A352B7070BDC046202D00207D
:10C4D0007C61004000600040034B3A331878431EF3
:10C4E0009841C0B27047C046202D0020F0B500240E
:10C4F000C1250122260087B04F4B50485049039474
:10C50000AD001F68012F04D147593A4201D01E6087
:10C510001443043352008B42F3D14A4B1A68012A68
:10C520000AD100221A6080231B061C43A022A223EA
:10C53000D205DB00D358039323072BD1002C78DAE4
:10C5400000230493013B00273E00059332003E4B3D
:10C5500038329C56621C5CD0E4B2C0222500072011
:10C5600095432040BF3A8240E90805A8405C02425A
:10C570004FD05819007EA40940B28000C3580193DF
:10C58000002B21D1032C44D104AB5B181878104345
:10C5900018701BE0A22701260025FF0026420ED0BE
:10C5A000264AAB009A18D059D159274A9B58002BDC
:10C5B00005D00322090CC0041140C00E9847013574
:10C5C0007600042DEAD1B9E7032CDDD02B00A020A2
:10C5D000C133FF33C0059B001B5803A8415C9B037C
:10C5E0009B0F0A4205D0022B13D1032C0BD1210043
:10C5F00004E0032B0DD1032C05D102212800FFF705
:10C600001DFF0137FFB2019B002B02D02100280043
:10C6100098470136022E99D1002F0AD0A223A022DA
:10C62000DB00D205D358039A934202D00393049BB4
:10C6300089E707B0F0BDC0460061004000600040DF
:10C64000106100407C610040202D00200023A021CB
:10C65000A120154A30B51360144AC9005350144B39
:10C66000C000597C1458DD684800445301311C7CDB
:10C67000C9B2597401208C4212D9996849680029BD
:10C680000FD15868986008009B681968094BD15011
:10C69000A0210123C9005350002801D000201360BD
:10C6A00030BD9960F0E7C046007100400070004066
:10C6B0005C2D0020040500001FB5144CE168002922
:10C6C00013D1134BC22019600123124A800013506A
:10C6D000F930FF301150A121C900525801A8037050
:10C6E0008280A374236898471FBDFFF7AFFF00281F
:10C6F000FAD0C2220123074992008B50002201A8E0
:10C700000270E2684260227C0281EAE75C2D002030
:10C710000071004000700040094B70B51C0005001E
:10C720000834002801D010331C002368002B05D0EA
:10C730001A68280022605B689847F6E770BDC0461B
:10C74000702D002010B50F4C85202378002B18D1B8
:10C750006360A360E36023610B4B186801231840FA
:10C7600002D10321FFF730FEFEF77CFE002805D141
:10C77000A32380220121DB00D205D1500123002018
:10C78000237010BD702D002000E100E0114B10B5AA
:10C790001A68002A0BD00020C222802118600123D1
:10C7A0009200C9058B500C4A5370FFF7B5FF0B4B35
:10C7B0001A68002A0CD000221A60C22380220221AB
:10C7C00001209B00D205D150034B9870FFF7A4FFC6
:10C7D00010BDC04600010040702D00200401004043
:10C7E00010B5002801D1FFF797FF10BD37B56B4694
:10C7F000DD1D002328002B70FFF7B2FD074C2378C6
:10C80000002B01D1FFF79EFFE36828780133E36036
:10C810000123A370FFF7C2FD37BDC046702D002075
:10C82000012300781840704737B5A3236A46DB0020
:10C83000C3580732DBB213700B7F0C7D9C4202D9C8
:10C8400012780C69E2540B7F0D7B0133DBB25A1C6A
:10C850000B77AA4205D28B689A5C084BC250012024
:10C860003EBD0C7DA24201D2CA7EF6E70120AB425A
:10C87000F6D3A3429B415842F2E7C0461C05000094
:10C88000002210B50C4B0D4CDA6021000C48FFF76C
:10C89000CBFF00280FD1A27EFF2A06D00123A021C2
:10C8A0009340A122C905D2008B500023201D63763E
:10C8B00023712368984710BDFC300040842D002070
:10C8C0000030004070DF704771DF704773DF7047E2
:10C8D00074DF704776DF704777DF704778DF704727
:10C8E0007ADF70477CDF70477FDF704786DF7047F5
:10C8F000A0DF7047A2DF7047A9DF704763DF704792
:10C900003CDF704748DF7047704710B5FFF71AFDEE
:10C9100010BD0000037810B5002B08D1044B3B215B
:10C920001888FFF7D7FF002801D0FFF70BFD10BDD7
:10C93000342F0020034B10B5002B01D000E000BFC6
:10C94000FEE7C046000000001FB51C4B02AC1B7880
:10C95000FF2B30D11A4B1B78FF2B2CD100236A46BA
:10C96000694613705370174B1B681A788A70E5225A
:10C97000CA704D3A0A7128324A715B88124A934252
:10C9800005D006220B701B0A4B70092006E0200020
:10C99000FFF79AFF6B4604220B20991C684400F0B5
:10C9A00007FB002021002070FFF78CFF002801D03A
:10C9B000FFF7C8FC1FBD06220149E6E7F9FF0300A7
:10C9C000F8FF0300C42E0020FFFF000010B586B062
:10C9D00004221949684600F0EBFA0023482217495F
:10C9E0006846FEF745FD002801D0FFF7ABFC0121AA
:10C9F00001AC22000800FEF795FD00232380984239
:10CA000001D0FFF79FFC2000FEF7A0FD002801D019
:10CA1000FFF798FC0A48FEF761FD002801D0FFF7F8
:10CA200091FC0848FEF764FD002801D0FFF78AFC5E
:10CA3000FFF78AFF06B010BD9CD301007C2E0020BA
:10CA40008DCB010009C9010037B50420FFF744FF71
:10CA5000112301AC23700B4B1B685D68280000F0AC
:10CA600033FB290082B22000FFF73CFF002801D0F1
:10CA7000FFF768FC8020FFF731FF002801D0FFF7A7
:10CA800061FC37BDC42E002010B5054C18220021D2
:10CA9000200000F0CFFA034B1B681B89238210BDD6
:10CAA0001C2F0020C42E002010B58CB003AC08222F
:10CAB0000021200000F0BEFA1A4B20001B685A89A2
:10CAC00022809B896380184B1B6801936B469B886F
:10CAD000A380164B1B6801936B469B88E380FFF78E
:10CAE000FFFE002801D0FFF72DFC05AC1C22002121
:10CAF000200000F09FFA0E4B20001B68019363603A
:10CB0000F0231B03A360032323730A4B63610A4BC7
:10CB1000A361FFF729F8002801D0FFF713FC0CB040
:10CB200010BDC046C42E0020A8D30100A0D3010030
:10CB3000A4D3010015C901000BC90100002310B5E1
:10CB4000044A09211800FFF731FB002801D0FFF744
:10CB5000F9FB10BDA42D002010B50648FFF7B6FE66
:10CB6000122805D0082302009A4301D0FFF7EAFB00
:10CB700010BDC0461C2F002010B5FFF7A9FE0823EA
:10CB800002009A4301D0FFF7DDFB10BD038870B5AA
:10CB900004001B2B00D17BE01AD8112B4BD00BD8F3
:10CBA000102B2FD0414B002B02D0200000E000BF03
:10CBB0002000FFF711F870BD132B54D0142BF1D1C6
:10CBC0003B4B188800231A001900FFF78FFE51E035
:10CBD000512B42D009D81D2B61D0502BE2D1354BBF
:10CBE000002BDFD0FEF782FBDCE7522B48D0552B21
:10CBF000D8D18379002BD5D12D4B13211888FFF77D
:10CC000069FE37E002228388294D2B802A4B1A7057
:10CC1000FFF7A2FF002328881A001900FFF76CFE17
:10CC2000002801D0FFF78EFB244B002BBAD0200048
:10CC300000E000BFB6E701221D4B52421A80FFF709
:10CC40009BFF00221C4B1A70FFF786FF1C4B002B2A
:10CC5000A8D0200000E000BFA4E71A4B002BA1D011
:10CC600000E000BF9EE7124B174A18880023190006
:10CC7000FFF73AFE002800D194E7FFF763FB91E746
:10CC80000B4B188800231A001900FFF735FEF1E757
:10CC9000037A002B00D085E7FFF732FEEAE70B4B63
:10CCA000002B00D17EE700E000BF7BE70000000022
:10CCB000342F0020EDB201001C2F002000000000E6
:10CCC0000000000000000000042800200000000018
:10CCD00010B5FFF717FE002801D0FFF733FB10BD9A
:10CCE000094B10B51860FFF771FEFFF7ADFEFFF7B7
:10CCF000CBFE00F0DBF8FFF721FFFFF7D5FE0123A5
:10CD000002485B42038010BDC42E0020342F002057
:10CD100010B5038A0400002B04D1027B437B12026E
:10CD200013430382210020001231FFF7E7FD0028A2
:10CD300001D0FFF707FB220021001432103101203F
:10CD4000FFF7D6FD002801D0FFF7FCFA10BDF0B5C3
:10CD5000070095B003931AAB1B880DAE0191140028
:10CD600000211C2230000125029300F063F93B00F2
:10CD70002B40AB4001992C402940C9000B432201B4
:10CD80001C0014431C9A3470927C07AB9A701D9A55
:10CD900005AC128800211A802000032200F04AF915
:10CDA000002F02D010231D432570019B002B02D0C1
:10CDB000112205AB5A70062205ACA37801209343DB
:10CDC0001A0004230399134308AD014083430B4326
:10CDD000142200212800A37000F02CF907AB08935F
:10CDE0006B461B891C9A2B816B461B896C60AB813F
:10CDF0001B9B31002B611D9B908A02332A00FFF799
:10CE000079FD06900698002801D0FFF79BFA15B02F
:10CE1000F0BD4B88C088C01A43425841C0B2704729
:10CE2000F0B59FB007000E00150000213C226846B7
:10CE30000FAC00F0FFF83C220021200000F0FAF8CF
:10CE400006236A46D370043B002F15D01370002EC2
:10CE500003D001236A4605961382002D00D0099560
:10CE600021006846FEF7D2FD002801D0FFF76AFADC
:10CE7000FFF772FE1FB0F0BD2370E8E7002210B587
:10CE800001001000FFF7CCFF10BD000010B50248F4
:10CE9000FFF726FF10BDC0460C28002010B5024841
:10CEA0001030FFF7EBFF10BD3A28002030B51D4DC4
:10CEB00085B02800FFF72CFF1B4B029503931B4BFB
:10CEC000012101930823009300231A001800FFF7A3
:10CED0003EFF174B01220393164B100001930523CD
:10CEE0000093002302951900FFF731FF124B012434
:10CEF0000393124B22000193002320001900029596
:10CF00000094FFF724FF0E4B029503930D4B220074
:10CF1000019302232100009320000023FFF717FF55
:10CF200005B030BD3A28002050280020002F0020F6
:10CF300030280020CC2E00201C280020E82E0020C5
:10CF400026280020EE2E002010B50021040000F05D
:10CF5000EDF8044B1868C36B002B00D098472000F5
:10CF600000F00CFAB4D3010070B50D4E0D4D002445
:10CF7000AD1BAD1005D0A300F35801349847A5426E
:10CF8000F9D100F0FDF9084E084D0024AD1BAD109D
:10CF900005D0A300F35801349847A542F9D170BDDC
:10CFA0008C2C00208C2C00208C2C00208C2C002021
:10CFB000F0B505000F2A2FD90B0003439B0734D18E
:10CFC00016000C000300103E350901352D014519EE
:10CFD00027681F6067685F60A7689F60E768103414
:10CFE000DF6010339D42F3D10F239E431036851925
:10CFF00089191340032B1AD91E1F0023B4080134CA
:10D00000A400CF58EF500433A342FAD10324A6431F
:10D01000331D2240C918ED18002A05D00023CC5C2E
:10D02000EC5401339342FAD1F0BD0500F6E71A0043
:10D03000F2E7C046F0B5830743D0541E002A3FD024
:10D04000CEB20200032502E01A00013C38D3531C83
:10D0500016702B42F8D1032C2AD9FF220A40150260
:10D0600015432A0415430F2C14D927001A00103F2A
:10D070003E09013636019E19156055609560D560F0
:10D0800010329642F8D10F2297431037DB19144023
:10D09000032C0DD91A00271FBE080136B6009E19B1
:10D0A00020C2B242FCD1032297430437DB1914405B
:10D0B000002C05D0C9B21C19197001339C42FBD158
:10D0C000F0BD14000300C6E710B5830725D0037830
:10D0D000002B24D00300032102E01A78002A1AD082
:10D0E00001330B42F9D119680E4A0F4C8A188A4352
:10D0F000224206D1043319680A4A8A188A43224216
:10D10000F8D01A001B78002B03D0013211780029C7
:10D11000FBD1101A10BD181AFCE70300E3E700204A
:10D12000F8E7C046FFFEFEFE80808080F0B5DE4658
:10D1300057464E464546E0B53D4B85B01B680190CD
:10D14000180002930F0000F09BF83A4B1B68029303
:10D150004933FF330393A422029B52009E58002EB2
:10D160004ED0039B9946C4235B00984604339A46ED
:10D170007468B044A5007519B244013C08D52DE08F
:10D180006B1DFF331B689F4204D0043D013C25D337
:10D19000002FF5D173686A68013BA3423DD000239C
:10D1A0006B60002AF1D0736841469B460123A3407F
:10D1B000096819422FD05146096819422FD12B0016
:10D1C000843319680198904773685B45C3D14B4617
:10D1D0001B68B342BFD1043D013CD9D2164B002B92
:10D1E0000ED07368002B1FD13368002B08D04A463D
:10D1F0003000136000E000BF4B461E68002EB2D125
:10D200000B4B186800F03EF805B03CBC90469946C0
:10D21000A246AB46F0BD9047D6E77460C1E72B004D
:10D22000843318689047CFE7B1463668E6E7C046D2
:10D23000882C0020B4D301000000000010B50100CC
:10D2400000230022002000F01FF810BD70B5094B2C
:10D25000094CE41AA41009D0084AA518AD00ED182D
:10D260002B68013C9847043D002CF9D100F08EF862
:10D2700070BDC0468C2C00208C2C0020FFFFFF3F8F
:10D280007047C0467047C046F0B54E464546DE463C
:10D290005746E0B5364D83B00600286898460F0023
:10D2A0009146FFF7EDFF334B1C68A4235B00E05869
:10D2B000002852D043681F2B13DC5A1C0192002E09
:10D2C00028D1019A02339B0042601F502868FFF763
:10D2D000D9FF002003B03CBC90469946A246AB461D
:10D2E000F0BD254B002B3DD0C820400000E000BF22
:10D2F000002837D0A42200235200A15843600160C7
:10D30000A0504032835004328350013301930023F4
:10D31000002ED6D09A00924682444A46882154462E
:10D320006250C4225200914681444A46873999404E
:10D3300012688B460A4394464A466146116084222D
:10D3400041465200A150022EBBD102005C468D32F4
:10D35000FF3211680C431460B3E720004D30FF30FA
:10D36000E050A7E72868FFF78DFF01204042B1E7B2
:10D37000882C0020B4D3010000000000FEE7C04666
:10D38000F8B5C046F8BC08BC9E467047F8B5C04624
:10D39000F8BC08BC9E467047C82C00200010020054
:10D3A0009001000000800000000000004D494E4543
:0CD3B000000000006028002000000000C9
:08D3BC0004DDFF7F0100000009
:10D3C4000024F40031071000000000000000FFFFFB
:10D3D400ACD30100400108002800000003870000CE
:10D3E40000000000000004870000000000000000AE
:10D3F400028700000000000000009CCD5A86DCDBA0
:10D40400E8AF8C7BDBDC5A86CD9C0000000000007A
:10D414000187000000000000000000000000000080
:10D42400000000004C2B0020B42B00201C2C0020FA
:10D4340000000000000000000000000000000000E8
:10D4440000000000000000000000000000000000D8
:10D4540000000000000000000000000000000000C8
:10D4640000000000000000000000000000000000B8
:10D4740000000000000000000000000000000000A8
:10D484000000000000000000000000000000000098
:10D494000000000000000000000000000000000088
:10D4A4000000000000000000000000000000000078
:10D4B4000000000000000000000000000000000068
:10D4C4000000000000000000010000000000000057
:10D4D4000E33CDAB34126DE6ECDE05000B0000001C
:10D4E4000000000000000000000000000000000038
:10D4F4000000000000000000000000000000000028
:10D504000000000000000000000000000000000017
:10D514000000000000000000000000000000000007
:0CD844000000000000000000382F002051
:040000031000B139FF
:00000001FF
